:020000040800F2
:100000000004002021580008015100080151000897
:100010000151000801510008015100080151000878
:100020000151000801510008015100082146000853
:100030000151000801510008015100080151000858
:100040000151000801510008015100080151000848
:100050000151000801510008015100080151000838
:100060000151000801510008015100080151000828
:100070000151000801510008015100080151000818
:100080000151000801510008015100080151000808
:1000900001510008015100080151000801510008F8
:1000A00001510008015100080151000801510008E8
:1000B000F124000801510008015100080151000815
:1000C00001510008015100080151000801510008C8
:1000D0000151000801510008915B0008015100081E
:1000E00001510008015100080151000801510008A8
:1000F0000151000801510008015100080151000898
:100100000151000801510008015100080151000887
:100110000151000801510008015100080151000877
:100120000151000801510008015100080151000867
:100130000151000801510008015100080151000857
:100140004FF480550024C4F202054FF0FF332A69B2
:100150002DE980482B612C61EA68EB60EC60E9696D
:100160004FF4E04241F08050E861EE69C4F20002D1
:1001700046F00067EF6111688DB041F48070106047
:10018000AE6948F6880846F07D06059648F64406AE
:10019000C8F688060496C04E4FF4006E0396059E7E
:1001A00044F6880A44F684394FF44067AE61C4F2DD
:1001B000010E4FF08836C4F20107C346C8F6840A20
:1001C000C8F68809CBF2B848CEF80C304FF480500E
:1001D000CEF804A043F2883CCEF800904FF4A05132
:1001E000FB604FF4C052C7F804803E60049FC4F225
:1001F0000100C4F20101C4F20102C8F6830CC4F28A
:10020000844BC360C0F804C0C0F800B0CB60A34802
:100210004E600F60D360566003991660A04E40F6A2
:10022000044241F8040BC2F2000240F604404FF0D1
:10023000100AD6601661C2F2000040F60446C2F20F
:10024000000654616430C2F838A0D5F81CC0F061D3
:100250007064B064F063504430644FF4884891484F
:1002600006F1540E06F130090127C4F20008C6F861
:1002700020E0C6F824E0C6F818E0C6F83490C6F8C6
:100280003090F064C6F87480B462F66236655160EE
:1002900017724CF0010B4FF0804241F61F46C5F833
:1002A0001CB04FF6FF7096624FF4614701264FF481
:1002B0006D41CEF20001D0624FF0805C9461CEF2CD
:1002C00000075463D460546056611660802287F83A
:1002D0001C23C7F880C1C7F800C08C60D1F80C801F
:1002E000A0F5E0604FF4407208EA0000C0F2FA5254
:1002F00002434EF6F050CA60CEF20000D0F80CE097
:100300004FF480524EF08079C0F80C90CEF200028B
:100310001068DFF8BC9130434FF02008106009F1FD
:100320001C0681F81FA0002281F8228006A8A9F8E7
:1003300024300693C9F804900023C9F80090CDE951
:100340000A23C9F82060C9F81C60C9F80840C9F838
:100350001490C9F81090A9F82640C9F828400794CD
:100360000894099404F0C4FE06A804F099FE4E4ACD
:10037000DFF860E102EB0A0CC2F814C0C2F810C04A
:100380002EF0070CDFF850E1484BCEF800C0DFF844
:100390004CC1D9F81410DFF848E1089E2CF0070C86
:1003A0005961CEF800C0DFF83CC1C9F828605E6929
:1003B00003F128014FF0400A946103F1240BC2F8C5
:1003C00000C09460D4600122C3F81090C9F81430C2
:1003D000C3F808A033615C77C3F83CA09C635C63FE
:1003E0009A779C61C3F824B0D9629962C9F8183031
:1003F0001A7784F3118862B62D48D9F81830D821BD
:100400009861012200942B4B2B4804F009FB88F3E0
:10041000118840F60444C2F20004217A01290AD16D
:10042000EE6946F40032EA61C02587F82653C7F822
:1004300084A1C7F804A040F60447C2F200077B6F0E
:1004400040F2A930002444F24001012642F22C126D
:1004500040F60447188102251982C2F200079E82E5
:100460009A811C8019889B883D7284F31188134BF4
:10047000009413484FF4A471412204F0D1FA4FF4D0
:100480000063C4F201030F4C0F4EDFF85CA0DFF8ED
:100490005CB00E4F05932FE0040C002010610008A3
:1004A000100C002041230008A00B0020F4080020BD
:1004B000F060000801460008B00A0020E14300088F
:1004C00038090020800A0020F00800205413002082
:1004D000281300206F130020880A002000500020FD
:1004E000880B0020614500088C0A0020C00B00200A
:1004F00041F2883003F02CFD05988168CB07F7D5D1
:1005000040F60442C2F200029B48226004F0A8F8C0
:100510009A4804F0A5F89A4D9A4804F0A1F82A21C7
:10052000206803689A68904715F8011F0029F7D1E1
:100530009548964D04F094F82A21206803689A683B
:10054000904715F8011F0029F7D19148914D04F00B
:1005500087F82A21206803689A68904715F8011FD8
:100560000029F7D18C488D4D04F07AF82A212068B3
:1005700003689A68904715F8011F0029F7D1884849
:10058000884D04F06DF82A21206803689A68904726
:1005900015F8011F0029F7D18348844D04F060F855
:1005A0002A21206803689A68904715F8011F0029DE
:1005B000F7D17F487F4D04F053F82A212068036863
:1005C0009A68904715F8011F0029F7D17A487B4DAA
:1005D00004F046F82A21206803689A68904715F8C5
:1005E000011F0029F7D17648029104F039F86248DA
:1005F00004F036F840F6AC2502997248C2F20005C4
:10060000714B049029700391039A9846501C0390F3
:100610004FF0000958F8041B002900F084806B4D4E
:1006200004F08EF82D21206803689A68904715F829
:10063000011F0029F7D1039804F03AF864482E21ED
:10064000006809F101090568AB689847614D4846A3
:1006500004F02EF82021206802689368984715F866
:10066000011F0029F7D158F8041C0D68297839B109
:10067000206802689368984715F8011F0029F7D190
:10068000554803F0EDFF4FF4FA6003F061FC58F8B1
:10069000045C002038607860B860F8603861696890
:1006A000C6F800A08BF8000001B18847EA689047BF
:1006B000AB6803B1984702F053F99BF80050002D46
:1006C00051D0464D2D21206802689368984715F84F
:1006D000011F0029F7D140F68420C2F20000006813
:1006E0003F4D03F0E5FF202120680268936898479A
:1006F00015F8011F0029F7D1316851450BD9394D43
:10070000206815F8011C02689368984730682946EC
:1007100001358142F4D3344803F0A2FF58F8041B9A
:1007200000297FF47CAF049D55F8043F0495002B0D
:100730007FF46AAF04F004F82C4D0F4803F090FFEB
:100740004621206803689A68904715F8011F002920
:10075000F7D140F6AC20C2F20000017839B9244844
:1007600003F07EFFC4E6234803F07AFF52E72248F5
:1007700003F076FFBCE600BFD0630008906100087C
:10078000B0610008AC610008106200081C6200083B
:1007900030620008486200085C620008A462000839
:1007A000B8620008C0620008D4620008E062000875
:1007B000F46200080C630008206300084C63000822
:1007C0006063000840670008E0630008C461000837
:1007D000800A002074630008D4610008D861000812
:1007E000786300088D0A0020F06100087C6300082F
:1007F00000620008F461000808620008AFF300809E
:100800002DE9F04FC1F80CD0D0F80CD0BDE8F08F36
:10081000002383F311882846A04705F0C9FB05F0A3
:10082000EFFB00DFFEE7000000000000000000001A
:1008300040F6480340F6C042C2F20003C2F2000292
:1008400010B403F11C0002F1140403F11001DA608A
:100850009A6083E814001862D861052200205A6269
:1008600059611961986110BC704700BFAFF30080F7
:1008700040F62C03C2F2000300225B601B609A600A
:10088000704700BFAFF30080AFF30080AFF300808C
:1008900040F62C03C2F2000300225B601B609A60EA
:1008A000704700BFAFF30080AFF30080AFF300806C
:1008B00040F62C03C2F2000300225B601B609A60CA
:1008C000704700BFAFF30080AFF30080AFF300804C
:1008D00040F69043C2F2000301225B601B609A6005
:1008E000704700BFAFF30080AFF30080AFF300802C
:1008F00040F69043C2F2000300225B601B609A60E6
:10090000704700BFAFF30080AFF30080AFF300800B
:1009100040F6F833C2F2000300224FF4A4711A60CB
:1009200059609A60704700BFAFF30080AFF300805A
:1009300040F62003C2F2000300224FF4A4711A60B3
:1009400059609A60704700BFAFF30080AFF300803A
:1009500010B5202383F31188144CA068431C002B8E
:10096000A36018DD581E0028A060104A06DB03F0C3
:10097000B7FF0020002181F3118810BD0C4C536893
:10098000A469052084E80C00226254601C6004F015
:1009900087F8206AEEE7206801684C60216004F067
:1009A00007F90022A3680262DCE700BF2C080020E0
:1009B00028130020AFF30080AFF30080AFF3008076
:1009C00010B51E4B82B09869002482681C4B01321E
:1009D0004FF4A47100941B4804F022F81A4C1B49F0
:1009E0000860FFF7B5FF236801201A1B51425141EF
:1009F00002F0F6F908B102B010BDA3680220D3F1ED
:100A0000010138BF002102F0EBF90028F3D1FFF714
:100A10009FFF22680320131B5942594102F0E0F95D
:100A20000028E8D1A2680420D2F1010138BF0021DA
:100A300002B0BDE8104002F0D3B900BF2813002077
:100A400031270008C00C00202C080020541300207F
:100A500008B5202383F31188064B1868984205D007
:100A60000268002153601A6003F062FF002080F3E7
:100A7000118808BD18080020AFF30080AFF3008094
:100A800070B541F22833C2F20003986940F6C045C0
:100A9000866846F2100482B0C2F20005C0F6000477
:100AA00043F6C163721C00944FF4A471C0F60003B6
:100AB000284603F0B5FF41F25434C2F2000420602E
:100AC00046F214004FF4A471C0F6000042F28143D4
:100AD000B21C0090C0F60003681803F0A1FF60602C
:100AE00046F21800C0F6000042F221434FF4A47110
:100AF000F21CC0F60003009005F5247003F090FF8F
:100B0000A060FFF7A5FFFFF7A3FF01F029FF46F262
:100B10001C010120C0F6000102B0BDE8704001F0E8
:100B2000AFBF00BFAFF30080AFF30080AFF3008032
:100B30002DE9F0414F4E504FB36982B09A684FF49F
:100B4000A4714E4B053200974D4803F069FF4D4D9F
:100B5000B1694A4B8C6828604B48621C4FF4A47101
:100B600000904A4803F05CFFB369494C9A684FF41F
:100B7000A47168600332414B0094464803F050FF73
:100B8000B1698B68A86044481A1D4FF4A4713B4BAF
:100B90000090424803F044FFB2694FF4A471946896
:100BA000E8603F48A21C354B00903E4803F038FFF8
:100BB0003D4C2861204603F01BFF204603F018FF40
:100BC000204603F015FF204603F012FF204603F0F5
:100BD0000FFF01F0C5FE0120344901F051FF8046AE
:100BE00010B102B0BDE8F081B3694FF4A4719A6806
:100BF0002348224B0097053203F012FF286020257E
:100C000085F31188A168481C0028A06029DDA5682B
:100C1000254A691C0029A1601ADD03F061FE002548
:100C200085F3118801F09CFE202080F31188A268D2
:100C30000220B2F1010EDEF1000151EB0E0102F0D3
:100C4000CFF810B980F31188CBE785F31188C8E796
:100C50001068002503685A60136003F0A9FF05625D
:100C6000DBE7206803685C60236003F0A1FFC0F845
:100C70002080CCE72813002010600008F125000830
:100C8000C00C00205413002018600008080E00203B
:100C900014600008500F0020206000089810002009
:100CA00028600008E01100202C08002024600008C3
:100CB000F0B541F22833C2F20003986940F6C0460D
:100CC000876842F2814546F2280183B0C2F20006ED
:100CD000C0F60005C0F600017A1C2B460091304694
:100CE0004FF4A47103F09CFE41F25434C2F20004AC
:100CF000206046F22000C0F60000BA1C2B4600908F
:100D00004FF4A47106F5A47003F08AFE46F21401B4
:100D1000C0F600016060FA1C2B46009106F52470B5
:100D20004FF4A47103F07CFEA06046F21800C0F6F8
:100D300000003A1D2B4600904FF4A47106F5767022
:100D400003F06EFE46F21002C0F60002E060009270
:100D50002B4606F5A4604FF4A4717A1D03F060FEE3
:100D60002023206183F3118801F0F2FC01F0F0FCF4
:100D700001F0EEFC01F0ECFC01F0EAFC03F0B0FD48
:100D8000002181F3118801F0EBFD46F224010120DE
:100D9000C0F6000103B0BDE8F04001F071BE00BF35
:100DA0001149F0B490E81400B0F808C016890B4659
:100DB00053F81C5F22600768B444A2F808C00026FC
:100DC0004FF6FF729D427C60C6608A8408D02889F5
:100DD000C98C43189AB24FF080404263F0BC704710
:100DE0004FF08041CE60F9E728130020AFF3008078
:100DF000F0B41F4D4FF080472E4656F81C4FD7F8E1
:100E000024C0012998BF0221B4420361C2601FFAC5
:100E10008CFC21D0EA8C2389C2EB0C0C614489B292
:100E2000994215D3994205D92468C91A238989B2F0
:100E30008B42F9D3018163682289046043601860A2
:100E40006060511A4FF6FF702181A884F0BC704792
:100E50008A1892B27A63E5E701EB0C039AB27A63DF
:100E600000230222A5F826C03B61AB8CFA60D9E7CB
:100E700028130020AFF30080AFF30080AFF30080B1
:100E800030B54FF6FF73994287B0054611D00B4C31
:100E90000B4AA36901A8FFF7ABFF284603F000FE49
:100EA000049810B101A8FFF77BFFA169086A07B099
:100EB00030BD03F0F5FD014CF7E700BF281300201B
:100EC000A1450008AFF30080AFF30080AFF30080CE
:100ED00010B4024651B1074B44689B69042083E873
:100EE00014005360236010BCFFF7CABF4FF0FF30FF
:100EF00010BC704728130020AFF30080AFF30080D0
:100F0000F8B504460F461646202383F31188A568DA
:100F10002046314635B9FFF7DBFF0028F7DA85F3C5
:100F20001188F8BD6069013DA56000F8017B226968
:100F30006061904228BFE068E16928BF606109B143
:100F400020468847002080F31188F8BDAFF3008069
:100F500040F6700008B500214FF4FA62C2F20000BA
:100F6000FFF7CEFF002008BDAFF30080AFF3008095
:100F70003030FFF7C5BF00BFAFF30080AFF3008094
:100F800030304FF6FF72FFF7BBBF00BFAFF30080FA
:100F90002DE9F04F044683B00F4615469B46D0F826
:100FA0001C804FF0200A8AF311880026B146A368FE
:100FB00020465A1EDBB1A260636917F8011B03F8D3
:100FC000011B22696361934224BFE3686361B8F146
:100FD000000F00D0C04789F311880136013D10D0C1
:100FE0008AF31188A36820465A1E002BE3D1594684
:100FF00020460193FFF76CFF01990028D7D081F3B9
:101000001188304603B0BDE8F08F00BFAFF3008019
:101010003030FFF7BDBF00BFAFF30080AFF30080FB
:1010200030304FF6FF73FFF7B3BF00BFAFF3008060
:101030000346806810B4421E002A0C469A6002DB08
:10104000002010BC704759B1074C0520A2691362FB
:101050005C6882E818005A60226010BCFFF710BF7D
:1010600098604FF0FF30ECE728130020AFF30080CA
:1010700038B50546202383F311880D48FFF7D8FFC4
:10108000044680B90B4BDA68596852F8040B8A425F
:101090002860DA6028BF1A68074828BFDA6003F0C2
:1010A000B7FF03F01DFC002383F31188204638BDF1
:1010B00058080020480800206408002000000000B4
:1010C00008B50B4B00221A70202080F311880948C4
:1010D000C16809B1FFF764FE064842F21071064A82
:1010E0000023FFF785FE002282F3118808BD00BFB0
:1010F0008C0C0020B808002051450008AFF3008098
:10110000826941690346914210B5806817D0441C3A
:101110009C6012F8014B19699A618A420CD21A68D4
:10112000934207D01168104619604B600023136288
:1011300003F03EFD204610BDDA689A61EFE7002813
:10114000E5D06FF0020010BDAFF30080AFF3008078
:101150002DE9F041202382B083F31188A74D6A69FD
:10116000A869824200F089800021012001F038FE48
:10117000804600285DD180F31188A04C4121204693
:101180004FF6FF72FFF7BCFE422120464FF6FF727A
:10119000FFF7B6FE432120464FF6FF72FFF7B0FE81
:1011A000204644214FF6FF72FFF7AAFE202787F35F
:1011B0001188AE680220D6F1010138BF002101F08C
:1011C0000FFE064600283AD180F3118887F3118874
:1011D0002046FFF795FF86F31188C0B203F030FA7E
:1011E00087F311882046FFF78BFF86F31188C0B282
:1011F00003F026FA87F311882046FFF781FF86F374
:101200001188C0B203F01CFA87F311882046FFF75B
:1012100077FF86F31188C0B203F012FA87F31188C2
:101220006269A3699A422DD03146032001F0D8FDAE
:1012300040B1002383F3118802B0BDE8F08188F348
:101240001188F9E780F3118804206D4901F018FC3A
:1012500004460028F0D1202787F31188674E3046D6
:10126000FFF74EFF033014BF00210121052001F0DC
:10127000B7FD60B184F31188DEE7A968003118BFBB
:10128000012172E7A068011C18BF0121CDE780F39E
:101290001188082203465B493046FFF779FEB0F11A
:1012A000040CDCF1000454EB0C01062001F098FD65
:1012B00004460028C0D187F31188B1680720D1F116
:1012C000010138BF002101F08BFD80460028D1D1FB
:1012D00080F311884C4A4FF4A47190694B4B82689B
:1012E000CDF8008001324A4803F09AFB494B186060
:1012F00087F311883169F068B3680A1AD11A082097
:10130000B1F1040EDEF1000353EB0E0101F068FDB4
:10131000002894D180F3118801F022FB87F3118813
:10132000F76832693068D11BB0427761B761B1604C
:1013300018BF6FF0010408D00668046275602E6063
:1013400003F036FC2868A842F6D1002787F31188FD
:10135000202686F311882C69E868AB68221A0920D8
:10136000D41A6142614101F03BFD244C034610B1A7
:1013700087F3118860E780F3118802222149204613
:10138000FFF706FE0238434253EB00010A2001F04A
:1013900027FD034600287FF44FAF0222194920465B
:1013A000FFF7F6FD851E6A4252EB05010B2001F0A6
:1013B00017FD054600287FF43FAF86F31188A1682A
:1013C0000C20D1F1010138BF002101F009FD0146D7
:1013D00010B185F311882FE780F311880A22204687
:1013E000FFF78EFDB0F1FF3CDCF1000050EB0C018B
:1013F0000D2002B0BDE8F04101F0F2BC7008002001
:101400002C600008080E002028130020510F00084F
:10141000C00C002054130020AFF30080AFF3008015
:1014200070B5064682B00D460E484FF4A47103F025
:10143000A7FD044690B1202383F311880A4B32465E
:1014400000954FF4A47103F0F3F9012141770021D5
:10145000044603F06DFA002080F31188204602B0A4
:1014600070BD00BFD80B0020A1230008AFF300809F
:1014700070B52C4B82B09A6901A995682A4803F08F
:10148000C7FC2A49681EFFF7CBFF294C2949206079
:10149000A81EFFF7C5FF69466060234803F0B8FC4B
:1014A0000099214803F06CFD23490646E81EFFF72A
:1014B000B7FFA060304603F0CBFC216829B161681A
:1014C00019B1A168002924D00021012001F088FC75
:1014D00008B102B070BD01F043FA0220174901F0D3
:1014E000CFFA0028F5D169460F4803F091FC431E5E
:1014F0005A4252EB0301032001F072FC0028E8D1AC
:101500009DE80A000420CB1A5942594101F068FCB9
:10151000DFE7E0680028D8D12169D1F1010138BFA7
:101520000021D2E728130020D80B0020106000080B
:10153000541300201860000814600008346000088C
:10154000F0B50F4C83B0074620460E4603F018F95D
:10155000054690B1202383F311880A4B61683A460F
:10156000009603F065F902214177046400210546E5
:1015700003F0DEF9002080F31188284603B0F0BDA7
:10158000F80B0020A1230008AFF30080AFF3008028
:101590002DE9F041202582B085F31188674C0120A8
:1015A000616AB1F1050EDEF1000252EB0E0101F0AD
:1015B00017FC002840F0578280F3118885F31188CA
:1015C0004FF6FF7104F11C00FFF732FD054670B9BC
:1015D000A3686068422143F8041B8342A36001D3DF
:1015E0002268A260564803F013FD03F079F9002346
:1015F00083F311880220EA1A5142514101F0F0FBB5
:10160000002840F09880202585F311884D484FF63A
:10161000FF71FFF70DFD054670B9A06863684322AE
:1016200040F8042B9842A060444980F0208244484E
:1016300003F0EEFC03F054F9002383F31188022039
:10164000EA1A5142514101F0CBFB002873D1202509
:1016500085F311883B484FF6FF71FFF7E9FC05461B
:1016600070B9A0686368442240F8042B9842A060D7
:10167000324980F0FF81324803F0CAFC03F030F9B0
:10168000002383F311880220B5EB030CDCF1000288
:1016900052EB0C0101F0A4FB00284CD1202585F36E
:1016A000118828484FF6FF71FFF7C2FC054678B94C
:1016B000A0686368452140F8041B204A9842A06056
:1016C00024BF106890601E4803F0A2FC03F008F9E4
:1016D000002383F311880220B5EB030EDEF1000135
:1016E00051EB0E0101F07CFB28BB202585F311880E
:1016F00014484FF6FF71FFF79BFC054670B9E06890
:101700002268031F9342E3600C49C0F0B681412276
:101710000B481A6003F07CFC03F0E2F8002181F32F
:10172000118803206B1A5A4252EB030101F058FB57
:10173000002800F0AB8102B0BDE8F081480800202D
:10174000580800206408002080F3118886F311886F
:10175000412001F075F8D0F1010138BF00211620B9
:1017600001F03EFB0028E6D1422001F069F8D0F1FB
:10177000010138BF0021172001F032FB0028DAD127
:10178000432001F05DF8D0F1010138BF002118209D
:1017900001F026FB0028CED1442001F051F8D0F111
:1017A000010138BF0021192001F01AFB074600286B
:1017B000C1D1452001F044F8024687F311881A2070
:1017C000D2F1010138BF002101F00AFB0028B2D19B
:1017D000E968AB681B20CA1A5142514101F000FB75
:1017E0000028A8D10525B0460746202688F3118891
:1017F00001A801F065F8034687F311881C20D3F196
:10180000010138BF002101F0EBFA002893D19DF8C7
:10181000040002F015FF013DE7D11D20994901F0B8
:101820002FF9002887D186F31188676A1E207A1F56
:1018300051425141944F01F0D3FA85F311880028A9
:101840007FF479AF86F31188BB691F20D3F10101C2
:1018500038BF002101F0C4FA85F3118800287FF415
:101860006AAFB968FA683046B2EB010EDEF10003E8
:1018700053EB0E0101F0B4FA00287FF45CAF86F35D
:101880001188452000F0FCFFD0F1010138BF002194
:10189000212001F0A5FA00287FF44DAF442000F08C
:1018A000EFFFD0F1010138BF0021222001F098FAAA
:1018B00000287FF440AF432000F0E2FFD0F10101A7
:1018C00038BF0021232001F08BFA00287FF433AFCA
:1018D000422000F0D5FFD0F1010138BF00212420C3
:1018E00001F07EFA00287FF426AF412000F0C8FF07
:1018F0000021024681F311882520B2EB010CDCF1B6
:10190000000353EB0C0101F06BFA00287FF413AFD6
:10191000E268A1682620531A5A4252EB030101F0F3
:101920005FFA00287FF407AF05254FF0200807462F
:10193000202688F3118801A800F0C2FF014687F332
:1019400011882720D1F1010138BF002101F048FAA8
:1019500000287FF4F0AE9DF8040002F071FE013D16
:10196000E6D12820474901F08BF800287FF4E3AE48
:1019700086F31188646A2920631F5A4252EB0301DF
:10198000414C01F02DFA85F3118800287FF4D3AE85
:1019900086F31188A1692A20D1F1010138BF002105
:1019A00001F01EFA85F3118800287FF4C4AEE268C6
:1019B000A3682B20B2EB030EDEF1000151EB0E0108
:1019C00001F00EFA00287FF4B6AE86F31188236882
:1019D000626804F11C00D11A8910E360A36003F06F
:1019E00027FB04F11000294603F022FB02F078FFE8
:1019F00085F3118886F31188636A2C20B3F1050CF6
:101A0000DCF1000252EB0C0101F0EAF985F31188D8
:101A100000287FF490AE86F31188A1692D20D1F1C2
:101A2000010138BF002101F0DBF985F3118800289E
:101A30007FF481AE86F311882268A3682E20D21A23
:101A40005142514101F0CCF985F3118800287FF40F
:101A500072AE86F311882268E3682F20D21A5142B1
:101A6000514101F0BDF9002080F3118863E6086858
:101A70008860DCE508688860FDE54B68043BCB6066
:101A800045E600BF246000084808002001215820D6
:101A900003F0D6FFB0F1FF35684250EB050104209A
:101AA00001F09EF9054600287FF445AE202686F316
:101AB0001188582000F0C4FE014685F311880520E6
:101AC000B1F1FF3CDCF1000353EB0C0101F088F9AC
:101AD00000287FF430AE86F311888E480121FFF78D
:101AE000A7FA054680B9E0682268031F9342E360C5
:101AF000894902D24B68043BCB60582287481A6060
:101B000003F086FA02F0ECFE002080F31188062034
:101B1000B5F1FF3EDEF1000555EB0E0101F060F975
:101B2000054600287FF407AE202686F3118858204A
:101B300000F0A6FE014685F311880720B1F1FF33BE
:101B40005A4252EB030101F04BF9054600287FF49D
:101B5000F2AD86F31188676A0820D7F1010138BF1A
:101B6000002101F03DF96C4F804610B185F31188DA
:101B7000E1E580F3118886F31188BD6909206B1FA8
:101B80005942594101F02CF9054610B188F31188EA
:101B9000D1E580F3118886F31188FA68BB680A20C2
:101BA000D21A5142514101F01BF90028DED180F3D5
:101BB0001188052505E09DF8040002F041FD013D76
:101BC0000ED04FF6FF7101A8FFF752FAD0F10101D4
:101BD00038BF00210B2001F003F90028EBD0AAE563
:101BE0000C204F4900F04CFF00287FF4A4AD4FF6C5
:101BF000FF71472003F024FFD0F1010138BF00211D
:101C00000D2001F0EDF800287FF495AD4FF6FF713F
:101C100001A8FFF72DFAD0F1010138BF00210E20F5
:101C200001F0DEF800287FF486AD2668A3680F2057
:101C3000B6EB030CDCF1000252EB0C01364E01F066
:101C4000CFF800287FF477AD3168F3681020B1EB4E
:101C5000030EDEF1000252EB0E0101F0C1F8002884
:101C60007FF469AD012101A8FFF702FAB0F1FF305E
:101C700041424141112001F0B3F800287FF45BADEF
:101C8000202787F3118801A800F01AFE034685F388
:101C900011881220B3F1FF325142514101F0A0F8F6
:101CA00000287FF448AD87F31188736A13205A1F08
:101CB0005142514101F094F800287FF4D4AE4FF026
:101CC000000888F31188202686F31188A76914205C
:101CD000B7EB08056B4253EB050101F081F80E4D9F
:101CE000074600287FF452AF80F3118886F31188ED
:101CF000A968EA681520B2EB010CDCF1000353EB94
:101D00000C0101F06DF800283FF41EAD87F3118837
:101D100011E500BF64080020480800205808002092
:101D200024600008AFF30080AFF30080AFF30080C1
:101D300008B5202282F311888168002905DD02F0B0
:101D4000CFFD002080F3118808BD03F061F9F6E7AC
:101D50002DE9F041202682B086F31188A34C0120A2
:101D6000A168D1F1010138BF002101F039F8054621
:101D700008BB80F3118886F311884121204603F0C7
:101D800087FE4221204603F083FE4321204603F0D4
:101D90007FFE2046442103F07BFE85F3118886F305
:101DA00011886269A3699A4252D02946022001F043
:101DB00017F8054628B1002282F3118802B0BDE869
:101DC000F08180F311884FF0200888F31188874E46
:101DD0000146304603F05CFE043014BF00210121AF
:101DE000032000F0FDFF074678BB80F311884FF613
:101DF000FF71304602F014FBC0B202F021FC4FF636
:101E0000FF71304602F00CFBC0B202F019FC4FF635
:101E1000FF71304602F004FBC0B202F011FC4FF635
:101E2000FF71304602F0FCFAC0B202F009FC88F300
:101E30001188B1680420D1F1010138BF002100F000
:101E4000CFFF50B187F31188B8E785F31188B5E764
:101E5000A068011C18BF0121A8E780F311880520A4
:101E6000634900F00DFE05460028A7D188F31188CC
:101E70004121304603F00CFE4221304603F008FEBB
:101E80004321304603F004FE3046442103F000FEB7
:101E900085F3118808222B465649304602F008FB8C
:101EA000051F6A4252EB0501062000F099FF054626
:101EB000002883D188F31188B7680720D7F1010182
:101EC00038BF002100F08CFF07460028BDD180F309
:101ED000118888F311884121304603F0D9FD422151
:101EE000304603F0D5FD4321304603F0D1FD3046A6
:101EF000442103F0CDFD87F311883E4902223B4681
:101F0000304602F0D5FA831E584250EB03010820F8
:101F100000F066FF00287FF451AF034635490222E6
:101F2000304602F0C5FA821E51425141092000F0AC
:101F300057FF074600287FF441AF88F31188B56842
:101F40000A20D5F1010138BF002100F049FF054604
:101F500000287FF477AF80F3118888F31188294631
:101F6000304603F095FD3068F768B042B5607761A0
:101F7000B76118BF6FF0010508D00668056274608C
:101F8000266002F015FE2068A042F6D1002787F3F4
:101F90001188202686F31188A4680B20E31B5A427F
:101FA00052EB030100F01CFF104D044600287FF4A3
:101FB00049AF80F3118810484FF4A47182690F4B28
:101FC00092680F480094013202F02AFD0D49086022
:101FD00086F31188AB680C20D3F1010138BF0021D2
:101FE00000F0FEFE80B184F31188E7E6940800203B
:101FF0002C600008080E00202813002071440008FF
:10200000C00C00205413002080F3118800F0A8FCBD
:102010000A21284602F004FAB0F1FF3CDCF100008E
:1020200050EB0C010D2002B0BDE8F04100F0D8BE2D
:102030002DE9F04F20258BB085F31188AA4C0021A3
:10204000A3695A6B42F00500586381F3118800F0D0
:10205000B7FB431E5A4252EB0301012000F0C0FEC1
:1020600010B10BB0BDE8F08F00F0AAFBB0F1040C8A
:10207000DCF1000050EB0C01022000F0B1FE002862
:10208000EFD100F075FBD0F1010138BF0021032032
:1020900000F0A6FE06460028E3D101F069FF85F3B3
:1020A00011884FF08048D8F82470BFB286F31188A9
:1020B000A6694FF4A471B2688C4B013A00968C4823
:1020C00002F0AEFC8B4E306000F07AFB07F5FA713F
:1020D00007F22623814689B204209AB200F0A8FCB8
:1020E0000028BED10520B9F1010EDEF1000252EB4D
:1020F0000E0100F075FE0028B3D100F039FBD0F1DD
:10210000010138BF0021062000F06AFE07460028C2
:10211000A7D100F025FC85F31188A069416B41F03F
:102120000503436387F3118800F06AFB421F5042A6
:1021300050EB0201072000F053FE002891D100F07F
:1021400017FBD0F1010138BF0021082000F048FE44
:102150000746002885D101F00BFF85F31188D8F8D8
:102160002450ADB287F31188A7694FF4A471BA68FF
:102170005E4B013A00975E4802F052FC306000F07E
:102180003FFB05F5FA7105F22623074689B20920BF
:102190009AB200F04DFC00287FF463AF0A207A1E4B
:1021A0005142514100F01CFE00287FF45AAF00F06C
:1021B000DFFAD0F1010138BF00210B2000F010FE42
:1021C000074600287FF44DAF00F0CAFB4A4D4B484C
:1021D0002D6000604FF0200A8AF311882B680DF102
:1021E0002809A26949F8203D012103920491C5F80C
:1021F0000090059787F311888AF3118803680DF121
:102200002808A26948F8103DC0F800800420079211
:102210000890099787F3118801F0AAFE8AF31188C4
:102220004FF080414B6A1FFA83FB87F31188A7693F
:102230003348BA684FF4A4710090013A314B2C48EE
:1022400002F0EEFB0BF5FA77BFB2A46930608AF3B7
:102250001188626B02F00501052905D00523236270
:102260000B2002F01DFC626B22F005006063002170
:1022700081F311880BF226230C2039469AB200F024
:10228000D7FB00287FF4EDAE00F072FAD0F1010127
:1022900038BF00210D2000F0A3FD00287FF4E1AE3F
:1022A000164C00F05DFB1448494602F081FA2046C6
:1022B000414602F07DFA2A680E20B2EB050CDCF1F3
:1022C000000151EB0C0100F08BFD00287FF4C9AE3A
:1022D00023680F20B3EB040EDEF1000252EB0E0177
:1022E00000F07EFDBDE600BF2813002081420008FB
:1022F000C00C002054130020040800200008002017
:102300001060000811510008AFF30080AFF30080A7
:1023100040F6D003C2F2000340F6C04210B40021E0
:10232000C2F2000203F110004FF4CC6419609A600D
:10233000D9601160546058611861996110BC704790
:102340004FF48843C4F200039A8990B240F08001B0
:1023500099817047AFF30080AFF30080AFF3008046
:10236000704700BFAFF30080AFF30080AFF3008091
:10237000704700BFAFF30080AFF30080AFF3008081
:10238000704700BFAFF30080AFF30080AFF3008071
:1023900000207047AFF30080AFF30080AFF3008000
:1023A00008B5007802F04CF9002008BDAFF30080BA
:1023B000412002F045B900BFAFF30080AFF30080C9
:1023C000422002F03DB900BFAFF30080AFF30080C0
:1023D000432002F035B900BFAFF30080AFF30080B7
:1023E00008B5007802F02CF9002008BDAFF300809A
:1023F00038B540F63804C2F200040546204602F023
:10240000F7FC287802F01CF9204602F0C1FA0020FF
:1024100038BD00BFAFF30080AFF30080AFF30080A2
:1024200038B540F60804C2F200040546204602F022
:10243000DFFC287802F004F9204602F0A9FA002017
:1024400038BD00BFAFF30080AFF30080AFF3008072
:10245000074B10B520209C6980F31188032002F0FF
:102460001FFB216A0029F9D0002080F3118810BDDC
:1024700028130020AFF30080AFF30080AFF300809B
:10248000F8B50746154802F0B3FC202383F3118802
:1024900013488469A66B304602F01AFC114B1D46A6
:1024A00023621B68AB4203D09968A2689142F8D2BC
:1024B00058682360606004605C60072002F0F0FAF6
:1024C000304602F02DFC002484F31188387802F0A5
:1024D000B7F8024802F05CFA2046F8BD3808002040
:1024E0002813002018080020AFF30080AFF300800D
:1024F0004FF0804300212DE9F0471961202787F331
:1025000011881D4C5A6AE08CE3691FFA82F9C0EB0E
:1025100009051A89ADB2954204F11C0618D3A046EC
:102520008A4601E0B8F8260019688018AD1AE084E0
:10253000DA684E60C3F80CA0ADB2E1618AF311888D
:102540001869904787F31188E3691A89AA42E9D983
:10255000B3420CD002EB090188B24FF080435863BC
:10256000002080F31188BDE8F04702F0F1BA0022A4
:102570004FF08041CA60F3E728130020AFF30080DA
:1025800038B50B4D044602F02BF902F029F902F0A0
:1025900027F902F025F92268AB69101D2060597FE8
:1025A00001F00402D3B2002BEDD0002038BD00BFF3
:1025B00028130020AFF30080AFF30080AFF300805A
:1025C00010B5074C02E0074802F0A2FAA369587F51
:1025D00000F00401CAB2002AF5D0002010BD00BFEF
:1025E00028130020900C0020AFF30080AFF3008090
:1025F00010B5044640F62C00C2F2000002F088FA42
:10260000207802F01DF8002010BD00BFAFF300805D
:1026100046F2400010B5C0F6000046F25004C0F685
:10262000000402F035F84FF4E47002F041F820465F
:1026300002F016F846F25800C0F6000002F028F842
:10264000442002F035F8204602F00AF846F268000D
:10265000C0F6000002F01CF8142002F029F8204611
:1026600001F0FEFF46F27800C0F6000002F010F81C
:102670000C2002F01DF8204601F0F2FF46F288001F
:10268000C0F6000002F004F8042002F011F8204621
:1026900001F0E6FF46F29800C0F6000001F0F8FFF6
:1026A000102002F005F8204601F0DAFF46F2A800FB
:1026B000C0F6000001F0ECFF102001F0F9FF204609
:1026C00001F0CEFF46F2B800C0F6000001F0E0FFD6
:1026D000082001F0EDFF204601F0C2FF46F2C800DD
:1026E000C0F6000001F0D4FF242001F0E1FF2046F5
:1026F00001F0B6FF46F2D800C0F6000001F0C8FFB6
:10270000282001F0D5FF2046BDE8104001F0A8BF09
:1027100010B54121044602F05BFA4221204602F046
:1027200057FA2046432102F053FA002010BD00BFA3
:1027300010B540F62C04C2F20004204602F0E8F97D
:10274000204602F055F9002010BD00BFAFF3008015
:10275000054B1868984206D0026800215360016258
:102760001A6002F025BA704718080020AFF3008005
:10277000202383F3118841F22830C2F200008269DD
:102780000021506B516381F311887047AFF30080D3
:10279000FFF7EEBFAFF30080AFF30080AFF3008030
:1027A000FFF7E6BFAFF30080AFF30080AFF3008028
:1027B000FFF7DEBFAFF30080AFF30080AFF3008020
:1027C0000B4B10B520209C6980F31188626B32B9E5
:1027D0004FF0FF3121620A2002F062F9626B504231
:1027E000104022EA00026263002383F3118810BDC7
:1027F00028130020AFF30080AFF30080AFF3008018
:102800000B4B10B520209C6980F31188606B30B9A8
:102810004FF0FF310A20216202F042F9606B626BD7
:10282000002322EA0002626383F3118810BD00BF17
:10283000281300200000000000000000000000003D
:102840000C4B10B5596A002910DD9A6801395C6893
:10285000596242F8040BA2429A6028BF1A680648DF
:1028600028BF9A6002F0D4FB002010BD4FF0FF306B
:1028700010BD00BF4808002058080020AFF30080BA
:102880000C4B10B5596A002910DDDA681C68043A4F
:102890000139A2425962DA6002D25A68043ADA6017
:1028A0001060054802F0B4FB002010BD4FF0FF306F
:1028B00010BD00BF4808002058080020AFF300807A
:1028C0000C4B10B59969002911DDDA684C1E9C612A
:1028D00052F8044B596804608A42DA6028BF1A68CB
:1028E000054828BFDA6002F093FB002010BD4FF0CE
:1028F000FF3010BD480800206408002000000000E0
:102900002DE9F84381464FF0200888F31188114ED5
:1029100000253069837F591C817785F311882F4604
:1029200000E02046484508BF45F0010588F31188BE
:102930000469B4420BD0A27F531CA37787F311889C
:1029400002F0CEFA002CECD12846BDE8F883002432
:10295000F4E700BF28130020AFF30080AFF300803E
:1029600010B5124C206818B102F0EAFA0023236077
:10297000606820B102F0E4FA0C4800224260A068CE
:1029800020B102F0DDFA094B00219960E06820B126
:1029900002F0D6FA05480022C260206920B102F098
:1029A000CFFA024B0021196110BD00BF5413002063
:1029B0001E4B1A684AB1202181F31188507F40F0E4
:1029C00004015177002282F31188586848B1202110
:1029D00081F31188427F42F004014177002080F3A7
:1029E00011889A684AB1202181F31188507F40F004
:1029F00004015177002282F31188D86848B1202160
:102A000081F31188427F42F004014177002080F376
:102A100011881B694BB1202282F31188597F41F044
:102A200004005877002383F3118870475413002063
:102A300010B4202383F311884FF08044646A00238C
:102A400083F31188A4B2641A511A8C4209DB064A36
:102A5000012313700549064A0B701060184610BC1C
:102A600070471846FBE700BFC00B0020AC0A0020EF
:102A7000840A0020AFF30080AFF30080AFF3008042
:102A80002DE9F001DFF87880DFF878C0D8F8007021
:102A90006346CCEB0702D20715D5674518D911F864
:102AA000012B9CF800400CF1010394420BD015E07F
:102AB0001E7812F8015B631CAE420FD14D7824786A
:102AC000511CAC420AD19F420A4603F10104EFD8DF
:102AD0000B781BB9C8F800C0184607E0054A012169
:102AE0001170054B054A197010600846BDE8F001E9
:102AF000704700BFC00B0020AC0A0020840A0020F1
:102B0000F00800208C0A0020AFF30080AFF30080B3
:102B100030B52C4B2C4C986983B085684FF4A47168
:102B20006A1C0094294B2A4801F07AFF294C2A4953
:102B30002060AA1C0091254B4FF4A471274801F096
:102B40006FFF274B6060EA1C00934FF4A4711F4B8A
:102B5000244801F065FFA06023482A1D00904FF42F
:102B6000A4711A4B214801F05BFF214AE0604FF449
:102B7000A4710092154B6A1D1E4801F051FF20619F
:102B8000202484F311881C4C2368A34218BF6FF0E3
:102B9000010509D0196818464C60216002F008F858
:102BA00023680562A342F5D101F09AFE002080F36C
:102BB0001188FFF7D5FE1149012003B0BDE8304070
:102BC000FFF75EBF2813002028600008812400085A
:102BD000C00C00205413002020600008080E0020C4
:102BE00014600008500F00201860000898100020A2
:102BF00010600008E0110020180800202460000880
:102C0000F0B541F22837C2F20007BB6940F6C04573
:102C10009A6842F2E13646F2280083B0C2F200051B
:102C2000C0F60006C0F60000053A334600904FF4A7
:102C3000A471284601F0F4FE41F25434B969C2F29D
:102C400000048B68206046F220004FF4A471C0F6A7
:102C500000001A1F00903346681801F0E1FEBA69BF
:102C60004FF4A4719368606046F21400C0F600004F
:102C7000DA1E0090334605F5247001F0D1FEB969E3
:102C800033468A68A06046F21800C0F60000023A97
:102C900000904FF4A47105F5767001F0C1FEBB6998
:102CA0004FF4A4719A68E06046F21000C0F600008C
:102CB000013A3346009005F5A46001F0B1FE2061B1
:102CC000FFF74EFE46F224010120C0F6000103B0DA
:102CD000BDE8F040FFF7D4BEAFF30080AFF3008053
:102CE0002DE9F04141F22836C2F20006B36942F202
:102CF000E1359A6846F2200182B0C0F60005C0F6C0
:102D00000001043A2B46009133484FF4A47101F0BE
:102D100087FE41F25434B769C2F20004BB686060B8
:102D200040F6C04746F22800C2F20007C0F6000095
:102D30005A1F00902B4638464FF4A47101F070FEE4
:102D4000B2692B469168206046F21000C0F6000080
:102D50004A1E00904FF4A47107F5A46001F060FED4
:102D6000B36946F218019A68C0F60001206100912B
:102D700007F576704FF4A471023A2B4601F050FE2D
:102D80004FF02008E06088F31188B06946F2140320
:102D90008268C0F60003009307F524702B464FF4B9
:102DA000A471033A01F044FD0025A06085F3118869
:102DB000A06888F3118801F0FBFE85F31188FFF706
:102DC000CFFD46F224010120C0F6000102B0BDE8AB
:102DD000F041FFF755BE00BF080E0020AFF30080A2
:102DE00041B9054A012313700449054A0B7010606C
:102DF0001846704700207047C00B0020AC0A002026
:102E0000840A0020AFF30080AFF30080AFF30080AE
:102E100070B582B001A9002001F0FAFF1021002056
:102E200002F0AEF8011C18BF012104460120FFF793
:102E3000D7FF054608B102B070BD204602F008F881
:102E40006FF0FF01284602F09BF8D0F1010138BF76
:102E500000210220FFF7C4FF0028ECD101A97F4820
:102E600001F0D6FF10217D4802F08AF810210546B6
:102E70007A4802F085F810210446784802F080F87C
:102E80000646284601F0E4FF204601F0E1FF304607
:102E900001F0DEFF6946714801F0BAFF421E51425F
:102EA00051410320FFF79CFF0028C4D110216B483B
:102EB00002F066F810210446684802F061F810211B
:102EC0000546664802F05CF801F0C2FF284601F0B2
:102ED000BFFF204601F0BCFF6946604801F098FF43
:102EE000431E584250EB03010420FFF779FF0028EE
:102EF000A1D11121594802F043F810210446574846
:102F000002F03EF80546204601F0A2FF694653480C
:102F100001F07EFFB0F1020CDCF1000252EB0C017B
:102F20000520FFF75DFF002885D110214B4802F0F6
:102F300027F869460446494801F06AFF012800F075
:102F40008B806946454801F063FFB0F1020EDEF167
:102F5000000151EB0E010620FFF742FF00287FF42D
:102F60006AAF284601F074FF204601F071FF694600
:102F70003A4801F04DFF431E584250EB0301072031
:102F8000FFF72EFF00287FF456AF1021334801F0E1
:102F9000F7FF10210546314801F0F2FF04462846AC
:102FA00001F056FF69462D4801F032FF821E514262
:102FB00051410820FFF714FF00287FF43CAF202187
:102FC000264801F0DDFF01F043FF204601F040FFFD
:102FD0006946224801F01CFF431E584250EB030192
:102FE0000920FFF7FDFE00287FF425AF69461B4846
:102FF00001F00EFF0099194801F0C2FF694604462E
:10300000164801F005FFD0F1010138BF00210A2068
:10301000FFF7E6FE00287FF40EAF204601F018FF10
:1030200069460E4801F0F4FEB0F1010CDCF100023B
:1030300052EB0C010B20FFF7D3FE00287FF4FBAE10
:103040009DE80A000C20B1EB030EDEF1000151EB0C
:103050000E01FFF7C5FEEEE601467CE7D008002032
:1030600070B52A4E82B0B36929489C6801F0C0FE51
:103070002848621C4FF4A471274B0090274801F0A8
:10308000CFFC274DA21C286026484FF4A471224B88
:103090000090254801F0C4FC68602448E21C4FF40D
:1030A000A4711D4B0090224801F0BAFCA860214891
:1030B000221D4FF4A471184B00901F4801F0B0FC82
:1030C000E8601E48621D4FF4A471134B00901C4829
:1030D00001F0A6FC28610E4801F05AFCFFF740FC05
:1030E000B16901208A68B4EB020EDEF1000353EBF4
:1030F0000E01FFF775FE08B102B070BD1149022044
:1031000002B0BDE87040FFF7BBBC00BF2813002031
:103110003808002028600008F1230008C00C0020B7
:103120005413002020600008080E002014600008DE
:10313000500F002018600008981000201060000850
:10314000E011002024600008AFF30080AFF300809E
:10315000F8B54E4EB3699C68651C284601F0D0FB5B
:10316000021B5142514107460120FFF739FE00B1D1
:10317000F8BDB36902209A68AB1A59425941FFF76A
:103180002FFE0028F4D1384601F0BAFBB5EB000C55
:10319000DCF1000050EB0C010320FFF721FE0028BA
:1031A000E6D1B26904209368B4EB030EDEF10001AE
:1031B00051EB0E01FFF714FE0028D9D1202787F329
:1031C0001188B3699A68911C996080F31188B0697D
:1031D000A71C83680520FA1A51425141FFF700FEEF
:1031E0000028C5D1284601F08BFB001B434253EB5E
:1031F00000010620FFF7F4FD0028B9D1B2690720CD
:103200009168B7EB010CDCF1000353EB0C01FFF705
:10321000E7FD0028ACD1B2690820D16BB5EB010EF7
:10322000DEF1000353EB0E01FFF7DAFD00289FD11A
:10323000E71C384601F064FB281A424252EB0001B9
:103240000920FFF7CDFD002892D1B1690A208B68D3
:10325000FA1A51425141FFF7C3FD002888D1B369E2
:103260000B20DA6BB7EB020CDCF1000151EB0C0127
:10327000FFF7B6FD00287FF47BAF202383F311888E
:10328000B1698C60CC6380F3118871E7281300204A
:10329000F8B500F06DFE202686F311884FF08045CA
:1032A0006C6A0023A4B283F311884FF47A7000F0A3
:1032B0004FFE04F57A7104F2E932012089B292B22C
:1032C000FFF7B6FB00B1F8BD86F311886C6AA4B2B3
:1032D00080F311884FF47A7000F03AFE04F57A73A7
:1032E00004F2E932022099B292B2FFF7A1FB002862
:1032F000E9D186F31188696A8CB280F3118842F2B1
:10330000107000F025FE04F51C5000F1100300F1D0
:10331000110299B2032092B2FFF78AFB0028D2D1A2
:1033200086F311886F6ABFB280F3118807F57A744B
:10333000A4B286F31188696A601A81B259B9002370
:1033400083F3118807F2E9320420214692B2BDE8E6
:10335000F840FFF76DBB0820FDF792FDEFE700BFD7
:1033600038B500F005FEFDF7ABFE144D00241448FF
:1033700001F03EFD124801F00BFB114801F038FD51
:103380000F4801F005FB0E4801F032FD0C4801F03A
:10339000FFFA0B4801F02CFD094801F0F9FA2B78EF
:1033A0000134002BE3D0074801F072F9A00001F0CE
:1033B0007FF90548BDE8384001F052B98C0C002077
:1033C0009C0A00203061000840610008AFF30080D3
:1033D000F0B5124B83B0986900248568104F2646DB
:1033E000013500F0C5FDFDF76BFE4FF4A4710096AA
:1033F0000C482A460C4B01F013FB397801340029A4
:10340000F3D00A4801F044F9204601F051F9084888
:1034100003B0BDE8F04001F023B900BF281300203D
:103420008C0C0020C00C00207123000830610008C3
:1034300050610008AFF30080AFF30080AFF300806D
:1034400038B500F095FDFDF73BFE144D00241448FF
:1034500001F05EFB124801F0CBFA114801F058FB75
:103460000F4801F0C5FA0E4801F052FB0C4801F07C
:10347000BFFA0B4801F04CFB094801F0B9FA2B7870
:103480000134002BE3D0074801F002F9A00001F05D
:103490000FF90548BDE8384001F0E2B88C0C002077
:1034A000900C0020306100085C610008AFF30080E0
:1034B000F8B500F05DFDFDF703FE0024144F202653
:1034C000254686F31188012100231248124AFDF790
:1034D0008FFC42F21071104A00231048FDF788FC5F
:1034E0000C48FDF75DFC0D48FDF75AFC85F311888B
:1034F0003B780134002BE4D0094801F0C9F86000A2
:1035000001F0D6F80748BDE8F84001F0A9B800BFBF
:103510008C0C00208C0B002061230008C40B0020C1
:10352000306100086C610008AFF30080AFF30080E9
:103530002DE9F04141F2283884B004ACC2F2000811
:10354000002344F8043D00F013FDD8F8180040F6BD
:10355000C046826842F28157C2F20006C0F60007F8
:10356000013A3B464FF4A4710094304601F058FAFA
:10357000D8F8181041F254358B68C2F200054FF4A8
:10358000A4715A1E28603B467018009401F048FA56
:10359000D8F81820686090683B46421E4FF4A4712A
:1035A000009406F5247001F03BFAD8F81810A860D2
:1035B0008B6806F576705A1E4FF4A4713B46009452
:1035C00001F02EFAD8F818204FF4A47192683B4607
:1035D000013AE860009406F5A46001F021FA286140
:1035E00042F2107000F0B4FCFFF7E2F9FFF7B8F90F
:1035F00046F23010C0F6000001F04AF8039801F0DE
:1036000057F846F27810C0F6000001F029F804B02F
:10361000BDE8F081AFF30080AFF30080AFF300802E
:10362000F0B5134B83B0986900248568114F264686
:10363000013D00F09DFCFDF743FD4FF4A4712A46C7
:103640000D4B00960D4801F0EBF901F079FC39784B
:1036500001340029F1D00A4801F01AF8204601F09F
:1036600027F8084803B0BDE8F04000F0F9BF00BFFC
:10367000281300208C0C002071230008C00C0020AF
:103680003061000850610008AFF30080AFF30080A4
:103690002DE9F041244B82B0986900258268234BC4
:1036A00001324FF4A4710095214801F0B9F9214984
:1036B0000446086000F05CFCFDF702FDDFF8808046
:1036C00020272E4687F311880021204601F030F98B
:1036D0002046002101F02CF92046002101F028F9B4
:1036E0002046002101F024F986F3118898F8003073
:1036F0000435002BE6D0202080F311884FF0FF31F5
:10370000204601F015F9002282F31188FFF728F90D
:10371000094800F0BDFF680000F0CAFF074802B08A
:10372000BDE8F04100F09CBF2813002051240008A0
:10373000C00C00205413002030610008786100089C
:103740008C0C0020AFF30080AFF30080AFF300805B
:1037500070B5054600F00CFCFDF7B2FC074E0024E6
:103760002846012101F034FA33780134002BF7D0D8
:103770002846002101F02CFA204670BD8C0C002058
:1037800010B541F22833C2F20003986982B0826812
:10379000002443F6313340F6C040013AC0F600033E
:1037A00000944FF4A471C2F2000001F039F941F223
:1037B0005431C2F200010860FFF7CAFF0446FFF768
:1037C000CFF846F23010C0F6000000F061FF20464E
:1037D00000F06EFF46F28410C0F6000000F058FFC3
:1037E000600000F065FF46F27810C0F6000002B0FD
:1037F000BDE8104000F034BFAFF30080AFF30080AD
:1038000010B541F22833C2F20003986982B0826891
:10381000002443F6313340F6C0400132C0F60003C5
:1038200000944FF4A471C2F2000001F0F9F841F2E3
:103830005431C2F200010860FFF78AFF0446FFF727
:103840008FF846F23010C0F6000000F021FF20464D
:1038500000F02EFF46F28410C0F6000000F018FFC2
:10386000600000F025FF46F27810C0F6000002B0BC
:10387000BDE8104000F0F4BEAFF30080AFF300806D
:103880002DE9F04141F22836C2F20006B36940F654
:10389000C0459A6882B0C2F200054FF0000843F6B6
:1038A000313301324FF4A471C0F60003CDF800802B
:1038B000284601F0B5F8B16941F254348B6842F200
:1038C0007137C2F20004C0F600074FF4A471206003
:1038D0009A1E68183B46CDF8008001F0A1F8B26945
:1038E000606090683B46C21E4FF4A471CDF8008022
:1038F00005F5247001F094F8B169A0608B6805F5B6
:1039000076701A1F4FF4A4713B46CDF8008001F089
:1039100087F8B2694FF4A47192683B46053AE060BB
:10392000CDF8008005F5A46001F07AF820612068E8
:10393000FFF70EFF0446FFF713F846F23010C0F60B
:10394000000000F0A5FE204600F0B2FE46F2841012
:10395000C0F6000000F09CFE600000F0A9FE46F2F8
:103960007810C0F6000002B0BDE8F04100F078BE6B
:1039700040F6D833C2F2000340F6C04210B4002132
:10398000C2F2000203F110004FF4CC6419609A6097
:10399000D9601160546058611861996110BC70471A
:1039A00040F6D833C2F2000340F6C04210B4002102
:1039B000C2F2000203F110004FF4CC6419609A6067
:1039C000D9601160546058611861996110BC7047EA
:1039D00040F6180140F6380240F60803C2F2000231
:1039E000C2F20003C2F20001002049600960526087
:1039F000126090605B601B6098607047AFF300805E
:103A000040F6C04240F67003C2F20003C2F2000268
:103A1000111D5A619A61DA6042F281320420196103
:103A2000C0F6000200215B601B609860DA611962D9
:103A3000704700BFAFF30080AFF30080AFF30080AA
:103A400040F6C04240F69403C2F20003C2F2000204
:103A5000101D5A619A61DA6042F281320021C0F68B
:103A600000025B601B6099601861DA61196270473F
:103A700040F6180240F63803C2F20003C2F2000218
:103A80000020526012605B601B609860704700BF4E
:103A900040F6180240F63803C2F20003C2F20002F8
:103AA0000020526012605B601B609860704700BF2E
:103AB00040F63803C2F2000300225B601B609A608C
:103AC000704700BFAFF30080AFF30080AFF300801A
:103AD00040F6380240F60803C2F20002C2F20003C8
:103AE00000215260126091605B601B6099607047BA
:103AF00040F63803C2F2000300225B601B609A604C
:103B0000704700BFAFF30080AFF30080AFF30080D9
:103B100040F69C23C2F2000300225B601B609A60A7
:103B2000704700BFAFF30080AFF30080AFF30080B9
:103B300070B52026002500F0CBFF046B86F31188BA
:103B4000214600F0F5FE85F31188002CF3D12046C4
:103B500070BD00BFAFF30080AFF30080AFF3008013
:103B6000F8B5202686F31188794C7A4D2268002317
:103B70002A60256083F3118861684A1986F31188E9
:103B800020682260485183F311886068111886F319
:103B9000118827682160175083F3118860680A181C
:103BA00086F31188276822600F5083F311886168BB
:103BB000571886F3118820682760505083F31188C6
:103BC000204600F0DDFD011C18BF01210120FFF798
:103BD00007F9002840F0A980204600F0D1FD011C23
:103BE00018BF01210120FFF7FBF8002840F09D805D
:103BF000204600F0C5FD011C18BF01210120FFF780
:103C0000EFF8002840F09180204600F0B9FD011C3B
:103C100018BF01210120FFF7E3F8002840F085805C
:103C2000204600F0ADFD011C18BF01210120FFF767
:103C3000D7F8002879D1204600F0A2FDD0F101018B
:103C400038BF00210220FFF7CBF800286DD186F3A2
:103C50001188236825602B6080F3118886F3118812
:103C6000216805F5A472C5F84811226080F3118817
:103C700086F31188236805F52471C5F89032216018
:103C800080F3118886F31188236805F57672C5F8EC
:103C9000D833226080F3118886F31188216805F5F6
:103CA000A463C5F82015236080F31188204600F036
:103CB00067FD011C18BF01210320FFF791F80028C0
:103CC00033D1204600F05CFD011C18BF0121032008
:103CD000FFF786F848BB204600F052FD011C18BFD4
:103CE00001210320FFF77CF8F8B9204600F048FDD9
:103CF000011C18BF01210320FFF772F8A8B9204664
:103D000000F03EFD011C18BF01210320FFF768F8F9
:103D100058B9204600F034FDD0F1010138BF002130
:103D20000420FFF75DF8024600B1F8BD0A4B1021F0
:103D3000204661602260A36000F022FDD0F1010105
:103D400038BF00210520BDE8F840FFF749B800BFA3
:103D500020080020C00C002091230008AFF3008051
:103D60004B4B70B5996920208D6880F31188494BC1
:103D7000494A1C68002114601A6081F3118880F39D
:103D800011881C6802F5A476C2F848411E6081F3D0
:103D9000118880F311881C6802F52476C2F89042DD
:103DA0001E6081F3118880F31188186802F576741B
:103DB000C2F8D8031C6081F311883849681EFDF7EA
:103DC000BFFB374C37492060A81EFDF7B9FB3649C9
:103DD0006060E81EFDF7B4FB3449A060281FFDF7C2
:103DE000AFFB3349E060681FFDF7AAFB2168206143
:103DF00049B1616839B1A16829B1E16819B1D0F15F
:103E0000010138BF00210120FEF7EAFF00B170BDBB
:103E1000FEF7A6FD02202749FEF732FE0028F6D164
:103E20001C4800F0ADFC011C18BF01210320FEF767
:103E3000D7FF0028EBD1174800F0A2FC011C18BFE7
:103E400001210320FEF7CCFF0028E0D1114800F04B
:103E500097FC011C18BF01210320FEF7C1FF0028B9
:103E6000D5D10C4800F08CFC011C18BF01210320A7
:103E7000FEF7B6FF0028CAD1064800F081FCD0F159
:103E8000010138BF00210420BDE87040FEF7A8BF43
:103E900028130020F80B0020C00C00201060000840
:103EA0005413002018600008146000082060000807
:103EB000286000082C600008AFF30080AFF300809A
:103EC000F8B507461B4800F093FF1B4800F090FF31
:103ED000202383F31188194EB069846B204600F0CB
:103EE000F7FE174BB2691D4613621B68AB4203D045
:103EF000986891688842F8D25868136050600260F0
:103F00005A60072000F0CCFDB269136A013302D079
:103F1000204600F005FF002484F31188387800F073
:103F20008FFB054800F034FD024800F031FD2046CB
:103F3000F8BD00BF08080020380800202813002022
:103F400018080020AFF30080AFF30080AFF30080CB
:103F500008B50146202383F311880820FCF790FF61
:103F6000002080F3118808BDAFF30080AFF300801C
:103F700008B50120FFF7ECFF202383F311884FF0F1
:103F80008040416A002282F3118888B208BD00BFD8
:103F900008B54FF4FA70FFF7DBFF202383F3118895
:103FA00040F62C00C2F2000001F032F800F098FC5C
:103FB000002080F3118808BDAFF30080AFF30080CC
:103FC0002DE9F041894D8A48AB6982B09C684FF475
:103FD000A471671C874B3A460090874800F020FD8B
:103FE000864E04F10208306085484FF4A4714246C1
:103FF000844B0090844800F013FD7060834800F00B
:10400000F7FEA96901208A68A31A59425941FEF7AF
:10401000E7FE10B102B0BDE8F0814FF47A70FFF70F
:1040200097FFAA6902209368FA1A51425141FEF79C
:10403000D7FE0028EED1764800F0DAFEAB69032007
:104040009A68B7EB020CDCF1000151EB0C01FEF7B2
:10405000C7FE0028DED14FF47A70FFF779FFAB6915
:1040600004209A68B8EB020EDEF1000151EB0E015C
:10407000FEF7B6FE0028CDD1654800F089FCAB699B
:1040800005209A68BB1A59425941FEF7A9FE00283B
:10409000C0D14FF47A70FFF75BFFAA6906209368DE
:1040A000FA1A51425141FEF79BFE0028B2D100F0AE
:1040B000DFFDAB6907209A68B4EB020CDCF100016C
:1040C00051EB0C01FEF78CFE0028A3D1FEF748FC53
:1040D00050484FF4A4713A46464B0090464800F0D1
:1040E0009FFC30604C484FF4A4714246454B009011
:1040F000454800F095FC7060444800F079FEAB69DB
:1041000008209A68B4EB020EDEF1000151EB0E01BB
:10411000FEF766FE00287FF47DAF4FF47A70FFF75C
:1041200017FFAB6909209A68BB1A59425941FEF73B
:1041300057FE00287FF46EAF354800F059FEAA699B
:104140000A209368FA1A51425141FEF749FE0028AD
:104150007FF460AF4FF47A70FFF7FAFEAE690B2080
:10416000B368B8EB030CDCF1000252EB0C01FEF774
:1041700037FE064600287FF44DAF202080F31188DB
:10418000234800F0A5FD00F0ABFB86F31188A96978
:104190000C208B68B7EB030EDEF1000252EB0E0130
:1041A000FEF71EFE00287FF435AF4FF47A70FFF75C
:1041B000CFFEA9690D208B68FA1A51425141FEF7D2
:1041C0000FFE00287FF426AF00F052FDAB690E20F1
:1041D0009A68A31A59425941FEF702FE00287FF45B
:1041E00019AF02B0BDE8F041FEF7BABB28130020BA
:1041F0001860000851420008C00C00205413002031
:104200001060000821420008080E00200808002065
:10421000380800202060000814600008AFF3008018
:1042200010B540F63804C2F2000440F2DC50FFF74B
:104230008FFE204600F0DCFD204600F0A9FB0020A8
:1042400010BD00BFAFF30080AFF30080AFF300807C
:1042500010B540F60804C2F200044FF4FA70FFF7FC
:1042600077FE204600F0C4FD204600F091FB0020C0
:1042700010BD00BFAFF30080AFF30080AFF300804C
:1042800010B504464FF4FA70FFF762FE202383F363
:1042900011880121204600F0BBFC00F021FB00202A
:1042A00080F3118810BD00BFAFF30080AFF3008032
:1042B000494B10B5986949498268501EFDF7B0F81E
:1042C000817F044601200B1A5A4252EB0301FEF78C
:1042D00087FD00B110BD202181F31188A37F5A1CF6
:1042E000A27780F31188A17F02200B1A5A4252EB69
:1042F0000301FEF775FD0028ECD1204600F0F0FD2B
:10430000A17F0320B1F1010CDCF1000353EB0C01A0
:10431000FEF766FD0028DDD12046FEF7F1FA0146E2
:104320000420FEF75DFD0028D4D12046FEF7E8FA10
:1043300001460520FEF754FD0028CBD1204600F0B1
:10434000CFFDA27F0620D2F1010138BF0021FEF788
:1043500047FD0028BED1217F0720D1F1010138BFE0
:104360000021FEF73DFD0028B4D12046FEF7C8FA33
:1043700001460820FEF734FD0028ABD12046FEF7A9
:10438000BFFA01460920FEF72BFD0028A2D14FF409
:10439000FA70FFF7DDFD237F0A20B3F10F0EDEF187
:1043A000000252EB0E01FEF71BFD002892D12046C1
:1043B000FEF7A6FA01460B20FEF712FD002889D170
:1043C0002046FEF79DFA80F00100C1B20C20BDE846
:1043D0001040FEF705BD00BF281300201060000844
:1043E00008B50A4B4FF480549869094A2546826102
:1043F000C4F201042E46266141F28830FFF7A8FD81
:10440000656141F28830FFF7A3FDF4E7281300202F
:1044100090630008AFF30080AFF30080AFF300803B
:1044200070B5202304460E4683F31188C16901B19B
:104430008847A5682046314635B9FCF749FD002874
:10444000F7DA85F3118870BDA369013DA56013F803
:10445000010B2269A361934224BFE368A361002199
:1044600081F3118870BD00BFAFF30080AFF300800F
:1044700040F6940008B54FF4FA61C2F20000FFF76D
:10448000CFFF002008BD00BFAFF30080AFF3008076
:104490000C30FFF7C5BF00BFAFF30080AFF3008063
:1044A0000C304FF6FF71FFF7BBBF00BFAFF30080CA
:1044B0002DE9F84F04461D46D0F81C904FF0200B14
:1044C0008BF31188002601F1010801EB020AB9F112
:1044D000000F01D02046C847A7682046294647B9A3
:1044E000FCF7F6FC0028F7D087F311883046BDE8CA
:1044F000F88FA2697B1EA36012F8010B08F8010C6B
:104500002169A2618A4224BFE168A161002383F38B
:1045100011880136D045E9D08BF3118808F10108E4
:10452000D5E700BFAFF30080AFF30080AFF30080AA
:104530000C30FFF7BDBF00BFAFF30080AFF30080CA
:104540000C304FF6FF73FFF7B3BF00BFAFF300802F
:1045500040F68C43C2F2000301221A70704700BF7C
:10456000202383F31188094A094913680968073031
:1045700020F00700C91A88429ABF1818106000235B
:10458000002282F311881846704700BF880A002075
:10459000880B0020AFF30080AFF30080AFF3008002
:1045A000202383F31188017F07290ED8DFE801F06B
:1045B0001D0D0D2108040D08036A9A68511C9960AD
:1045C00090E80C001A60026853604FF0FF320262FC
:1045D00081680022094B02771B689A688A42FBD2E5
:1045E00059680360416008605860002080F31188BA
:1045F0007047036A00211960E7E700BF2813002015
:10460000024B034A98698261FEE700BF281300202D
:10461000A0630008AFF30080AFF30080AFF3008029
:10462000EFF30983203383F30988002080F3118896
:10463000704700BFAFF30080AFF30080AFF300809E
:10464000202383F3118840F6F001C2F200010A68CA
:1046500002F8010B0A60002080F31188704700BF48
:1046600038B50178084D41B10446286803689A6856
:10467000904714F8011F0029F7D1286803490368FF
:1046800002221B68984738BD800A0020A8630008F2
:1046900038B5017849B1054D0446286803689A6821
:1046A000904714F8011F0029F7D138BD800A002077
:1046B000F0B585B0002837D00DF101054CF6CD4698
:1046C0002B46CCF6CC46A6FB0012D40804EB8401A2
:1046D000A0EB41003030C1B2204603F8011C1C465B
:1046E00001330028EFD16A4694421BD9601BC307EF
:1046F000114F11D5386803689A68904714F8021C66
:10470000013C09E0386814F8021C0368661E9A68C8
:10471000904716F8021C023C386803689A68904774
:10472000AC42EFD105B0F0BD03483021006803680A
:104730009A689047F6E700BF800A0020AFF3008038
:1047400038B50B4D4C2428682D210368013C9A682C
:104750009047286801688B682D219847013CF2D169
:10476000034804490068026813680222984738BD6C
:10477000800A0020A8630008AFF30080AFF3008038
:1047800008B52022034682F31188006828B1026828
:104790001A60002383F3118808BD99680029F8D0B6
:1047A00058688847F5E700BFAFF30080AFF300809B
:1047B000202383F31188024600E01A4613688342DF
:1047C00003D08B42F9D108681060002181F3118871
:1047D000704700BFAFF30080AFF30080AFF30080FD
:1047E00038B5202383F311880F4B186899698268C4
:1047F0008C68A24203D2002080F3118838BD026881
:10480000012553601A609861002305770B770346F2
:104810001B689A689442FBD95A680B604A60116021
:104820005960FBF7EDFFE6E728130020AFF30080A7
:104830002DE9F003243941F228354718C2F200056A
:10484000D5F814C0C7604350069B40F61101C0F66E
:1048500000017B6039620026904600F1240900F1D6
:104860002802022301210561C0F80880C0F814C0A5
:10487000044668610377CCF810004677C0F83C80A6
:104880008663466381778661C0F82490C262826243
:10489000BDE8F003704700BFAFF30080AFF30080C6
:1048A0000D4B30B41868996902688C685360012513
:1048B0001A609861002305770B77034600E01B68B8
:1048C0009A68A242FBD85A680B604A60116059602E
:1048D00030BCFBF795BF00BF28130020AFF300806A
:1048E000044B1A68986991688368994200D87047A8
:1048F000FFF7D6BF28130020AFF30080AFF300808E
:1049000010B5202383F3118808498A69D46B936812
:104910009C4201D0834200D29060D063FFF7E0FF59
:10492000002080F31188204610BD00BF281300200E
:10493000F0B4144F0446BE698568B0680023854210
:1049400021620CD82377394609688A689542FBD9D9
:1049500048682160606004604C60F0BC7047337749
:10496000394609688A689042FBD9486831607060AE
:1049700006604E600123204631462377BC61F0BCBF
:10498000FBF73EBF28130020AFF30080AFF3008099
:1049900038B5154B04462021986981F311882568A4
:1049A000E368AC4283631BD0C16B4BB11A6893427E
:1049B00003D09268914238BF1146DB68002BF5D1D5
:1049C0002B68AA6B8160236028465C600021A5608B
:1049D000E260AC63FFF7ACFF002080F3118838BDC4
:1049E0000022A260F8E700BF28130020AFF3008088
:1049F00008B52022034682F311888068411C0029F3
:104A0000996003DD002383F3118808BD1868002135
:104A100002681A605360FFF78BFFF3E7AFF3008083
:104A20002DE9F8430446202585F3118841F2283604
:104A3000A1F1240800EB0807C2F20006D6F814C062
:104A4000C76040F80830089B00257B6040F61103E2
:104A5000C0F600033B6200F1280E826000F12409D9
:104A60000223C26301220661C0F814C029467061A6
:104A70000377CCF8100045778563456382778561BD
:104A8000C0F82490C0F82CE0C0F828E0FFF750FFF1
:104A900085F311882046BDE8F88300BFAFF300809E
:104AA00041F2283310B4C2F200031A6899691468FD
:104AB000087701201077104663601C609A6110BC73
:104AC000FBF79EBEAFF30080AFF30080AFF3008032
:104AD00010B5202383F311880B4CA269134653F8B9
:104AE000280F984208D0016891620D224B6002772E
:104AF000002383F3118810BD0E20FFF7D1FFA269B8
:104B0000134653F8280FEEE728130020AFF3008078
:104B100010B50346202282F311888068411E0029C7
:104B2000996004DB0020002282F3118810BD074C3D
:104B30000520A26913625968136051605A600A60C7
:104B4000FFF7AEFFA369186AEDE700BF2813002046
:104B5000202383F311884FF46D40CEF200004168AA
:104B600011F4006202D182F311887047EFF30983D8
:104B7000A3F1200080F30988074A116890698968C9
:104B800082684FF0807091428CBF044A044A43F817
:104B9000040C43F8082C7047281300201F08000855
:104BA00022080008AFF30080AFF30080AFF300806D
:104BB00000228168054B02771B689A688A42FBD203
:104BC00059680360416008605860704728130020EE
:104BD0000E4A70B59469202585F3118800F12805E7
:104BE0002562067FC26A0E2E256021636260C46260
:104BF000146007D00C20FFF753FF206A002181F3D7
:104C0000118870BDFFF7D4FFF4E700BF2813002020
:104C1000426B037F11430A2B41630AD00B2B00D058
:104C20007047026A11408A42FAD100210162FFF7FF
:104C3000BFBF036A1942F8D1704700BFAFF30080CD
:104C400070B504680546A0420E4609D0E368606866
:104C50003343E360A168FFF7DBFF2468A542F5D189
:104C600070BD00BFAFF30080AFF30080AFF30080F2
:104C7000134B70B520209C6980F31188A36BD3B1CE
:104C800000260AE01168956B19604B609A60DD6040
:104C90009363FFF78DFFA36B4BB11A68D9689342FA
:104CA0001046A163EED19E60A36B002BF5D1E06BA3
:104CB000A060FFF715FE002282F3118870BD00BFCF
:104CC00028130020AFF30080AFF30080AFF3008023
:104CD00030B4124B044625689869E368AC4283639C
:104CE00017D0C16B4BB11A68934203D092689142BE
:104CF00038BF1146DB68002BF5D12B68AA6B8160A9
:104D0000284623605C60A560E260AC6330BCFFF7BE
:104D10004FBF0021A16030BC704700BF28130020A6
:104D2000F8B52F4A836805469469002B51D0A168D5
:104D30009868814206D91A7F9960062A31D0072ADD
:104D40001CD092B128460068854203D08368A168D0
:104D50008B42F8D242682060626044600620146092
:104D60002562BDE8F840FFF79BBE93E8060011609E
:104D7000196818464A60FFF71BFFE3E758681F6889
:104D80001E6A07601F68324678601268964202D039
:104D900090688842F9D251681A6059600B6053607C
:104DA000D0E758681F681E6A07601F68324678603F
:104DB0001268964212D090688842F9D251681A60FF
:104DC00059600B605360B368A1689A688A42B2D395
:104DD000B8E7A36B8460C360A063F8BD3246EDE71B
:104DE00028130020AFF30080AFF30080AFF3008002
:104DF00008B5202383F31188FFF792FF002080F38A
:104E0000118808BDAFF30080AFF30080AFF30080DE
:104E1000F8B50E4C0F46002818BF044604F11006E2
:104E20003046FFF7E5FFA3686BB10022144628CB9C
:104E300001345219002BFAD107B13A603046FFF71E
:104E4000A7FD2046F8BD1A461C46F5E7A00B00203A
:104E5000F8B550F8085C064605F11007A0F1080403
:104E600008353846FFF7C4FF2B46AB421A6801D01D
:104E7000A34202D21AB1944201D31346F5E756F881
:104E8000041C46F8082C1C6001F1080256F8085C66
:104E9000A018A8420AD05A6802F1080019188C42DA
:104EA00012D03846BDE8F840FFF772BD4068A258FE
:104EB0000918083146F8041C46F8082C5A6802F113
:104EC000080019188C42ECD156F8040C56F8081C4E
:104ED0001218083283E80600E3E700BFAFF3008052
:104EE00030B40346202181F31188827F541EE2B240
:104EF0008277002484F3118812B9047F0F2C01D02B
:104F000030BC7047447F04F00304012C0FD0022C06
:104F1000F6D144690569006C25611D696C6181F3F6
:104F2000118801681960036082F31188E8E742691B
:104F30000169116103695A6130BCFFF789BF00BF85
:104F400038B50446202383F31188007F0F2807D04B
:104F50000849626A8D6909202A606562FFF7A0FD31
:104F6000256A002383F311882046FFF7B9FF2846FE
:104F700038BD00BF28130020AFF30080AFF30080DE
:104F8000F8B5224E0731002818BF064606F1100773
:104F9000384621F0070506F10804FFF729FF00E075
:104FA0001C46236803B35A689542F9D805F10801F5
:104FB000914216D84FF6F87ECFF6FF7EC5EB0E0C69
:104FC0000CEB020E1A6858185A50C0F804E0206022
:104FD0005D601C4644F8086B3846FFF7D9FC204654
:104FE000F8BD19682160F4E73846FFF7D1FC326854
:104FF0004AB105F10800904728B100F108040660A5
:1050000045602046F8BD0024E9E700BFA00B002062
:1050100082680346501C0028986000DD70471A68BB
:105020001168104619604B6000231362FFF7C0BD82
:10503000F8B5856804460135002D816029DC40689B
:105040006FF0010743686E1C63601C60FFF7B0FDE2
:1050500005F001010762EDB149B1606801364268AF
:1050600062601460FFF7A4FD012E076213D0606830
:10507000751C4368023663601C60FFF799FD076288
:105080006068416861600C60FFF792FD0762002D67
:10509000EDD1F8BDF8BDF8BDAFF30080AFF30080EF
:1050A0004FF48053CEF200030E4A596830B484683E
:1050B000936AC568091BC91A4468D0E904230135FD
:1050C000521843F10003A142C5608160C0E9042386
:1050D00005D80268914238BF016030BC704741601A
:1050E000FBE700BF28130020AFF30080AFF3008080
:1050F0004FF48053CEF2000359688160704700BFBF
:10510000FEE700BFAFF30080AFF30080AFF3008095
:1051100038B5202585F3118840F60400C2F200005E
:105120000021FFF78DFD0024FFF7DAFB84F31188DF
:105130004FF4FA70FEF70CFF85F3118840F600007B
:10514000C2F200002146FFF77BFDFFF7C9FB84F3A5
:105150001188204638BD00BFAFF30080AFF3008058
:105160002DE9F0413A4E82B0B36900249A684FF4B9
:10517000A471384B053200943748FFF751FCB169F0
:10518000364D8F68334B28603A1D4FF4A47100945C
:105190003348FFF745FCB369686098684FF4A47121
:1051A000C21C2C4B00942F48FFF73AFCB269A86050
:1051B00097684FF4A471BA1C264B00942A48FFF755
:1051C0002FFCB6694FF4A471B268224B0132E8603B
:1051D00000942648FFF724FC2861FEF7C9FEFBF780
:1051E0006FFFDFF89C802027264687F31188204830
:1051F0000021FFF71DFF0025FFF772FB86F31188E2
:1052000098F8001001340029EFD0FDF7D1FB2023DE
:1052100083F3118816482946FFF70AFFFFF760FB62
:1052200085F31188FDF79CFB1248FFF731FA204601
:10523000FFF73EFA1048FFF72BFA04EB440040005A
:10524000FFF736FA0D4802B0BDE8F041FFF708BAA3
:1052500028130020C1250008C00C00205413002092
:10526000080E0020500F002098100020E0110020B0
:10527000900C002030610008C063000878610008CD
:105280008C0C0020AFF30080AFF30080AFF3008000
:105290002DE9F0413B4D2020AB699E6880F31188D9
:1052A000394CA168002960D00021002080F31188CA
:1052B0000120FDF795FD08B1BDE8F081202787F3B7
:1052C0001188A168304B002956D00121002787F3AF
:1052D00011880220FDF784FD07460028ECD120212B
:1052E00081F31188DFF8A0804046FFF7F1FC87F3D7
:1052F000118823680320B3EB040EDEF1000252EBA9
:105300000E01FDF76DFD0028D6D1D8F80810042055
:10531000D1F1010138BF0021FDF762FD0028CBD19A
:10532000AB6905209A68B31A59425941FDF758FDF7
:105330000028C1D14046FFF75BFDFFF799FCD8F884
:1053400000200620B2EB080359425941FDF748FD01
:105350000028B1D1D8F808200720D2F1010138BFC8
:105360000021BDE8F041FDF73BBDAB6901219A6B1F
:10537000A360E2609C6398E7AA69906B9A60D8602A
:105380009363A3E72813002038080020AFF30080C0
:1053900070B541F22833C2F20003986982B0826886
:1053A00042F21173009040F6C0400132C0F6000393
:1053B0004FF4A471C2F20000FFF732FB41F2543106
:1053C000C2F200010860FFF783FB2025066B85F31E
:1053D00011883146FFF7ACFA002484F31188F0B24B
:1053E000FFF72EF9FFF774FB066B85F31188314642
:1053F000FFF79EFA84F31188F0B2FFF721F9FFF767
:1054000067FB066B85F311883146FFF791FA84F349
:105410001188F0B2FFF714F946F21C010120C0F622
:10542000000102B0BDE87040FDF72ABBAFF3008079
:105430002DE9F041202582B085F31188B84C002178
:105440002046FBF7F5FD0023014683F31188012078
:10545000B1F1FF3CDCF1000252EB0C01FDF7C0FCA6
:1054600010B102B0BDE8F08121680220B1EB040E5A
:10547000DEF1000353EB0E01FDF7B2FC0028F0D182
:10548000A6680320D6F1010138BF0021FDF7A8FC72
:1054900006460028E5D1A3484FF4A4718769A24BC2
:1054A000BA68A2480096013AFFF7BAFAA049086024
:1054B00085F3118841F288312046FBF7B9FD074694
:1054C00086F31188FDF74CFA0420D7F1010138BFAB
:1054D0000021FDF785FC0028C3D1236805201A1B95
:1054E00051425141FDF77CFC0028BAD1A668062044
:1054F000D6F1010138BF0021FDF772FC06460028F5
:10550000AFD1FEF735FD85F311884FF08040D0F81C
:10551000248086F311884120FFF792F885F31188E3
:1055200041F288312046FBF783FD034686F311885C
:105530000720B3F1FF3251425141FDF751FC0028E1
:105540008FD123680820B3EB040CDCF1000252EB8E
:105550000C01FDF745FC002883D1A6680920D6F18F
:10556000010138BF0021FDF73BFC064600287FF40F
:1055700078AF4220FFF764F885F3118841F2883153
:105580002046FBF755FD014686F311880720B1F14F
:10559000FF3EDEF1000353EB0E01FDF721FC002876
:1055A0007FF45FAF256808202A1B514251412546F0
:1055B000FDF716FC00287FF454AFA7680920D7F147
:1055C000010138BF0021FDF70BFC074600287FF4DE
:1055D00048AF4320FFF734F8202686F3118841F2C4
:1055E00088312046FBF724FD034687F31188072006
:1055F000B3F1FF3251425141FDF7F2FB00287FF435
:1056000030AF23680820B3EB040CDCF1000252EB4E
:105610000C01FDF7E5FB00287FF423AFA768092004
:10562000D7F1010138BF0021FDF7DAFB074600285A
:105630007FF417AF4420FFF703F886F3118841F297
:1056400088312046FBF7F4FC014687F311880720D8
:10565000B1F1FF3EDEF1000353EB0E01FDF7C0FB9D
:1056600000287FF4FEAE22680820131B59425941DE
:10567000FDF7B6FB00287FF4F4AEA7680920D7F148
:10568000010138BF0021FDF7ABFB074600287FF47E
:10569000E8AE4520FEF7D4FF86F3118841F2883149
:1056A0002046FBF7C5FC024687F311880720B2F1BC
:1056B000FF3359425941FDF793FB00287FF4D1AEE7
:1056C00022680820B2EB040CDCF1000353EB0C0160
:1056D000FDF786FB00287FF4C4AEA1680920D1F154
:1056E000010138BF0021FDF77BFB00287FF4B9AE34
:1056F0000A201049FDF7C4F900287FF4B2AE1FFA62
:1057000088F000F5C34202F1280302F15A020B208F
:1057100099B292B202B0BDE8F041FDF789B900BF7D
:105720002C08002028130020913F0008C00C002006
:105730005413002024600008AFF30080AFF3008012
:105740002DE9F0412F4C88B02021246081F311888D
:105750002D4A23680DEB0105906945F8203D01278E
:105760000023256001900297039383F3118881F34E
:105770001188216808AE926946F8101D4FF00208A2
:1057800026600592CDF81880079383F3118823686B
:105790003846191B18BF0121FDF722FB10B108B0D4
:1057A000BDE8F08120466946FFF702F821684046CF
:1057B000091B18BF0121FDF713FB0028EFD120467C
:1057C0003146FEF7F5FF22680320131B5942594169
:1057D000FDF706FB0028E2D10C4E0725044601E048
:1057E000013455B107FA04F32B42F9D056F82420BE
:1057F000204625EA03059047F2E704200449FDF717
:105800003FF9CCE70408002028130020B06300080B
:105810001C600008AFF30080AFF30080AFF300809E
:1058200072B6784C84F30988022383F31488BFF39B
:105830006F8F75487549884218D2CA1C051D561BC2
:1058400026F00307034638184FF05531834219609C
:10585000C7F380020AD01AB185422B46296005D0D1
:105860001D1D5960083383426960F9D1684EA64214
:1058700018D26849371DC81B20F00302334695191A
:105880004FF05534AB423460C2F380060AD01EB1EB
:10589000AF423B463C6005D01F1D5C600833AB4205
:1058A0007C60F9D14FF48050C4F2020002680146D6
:1058B00042F0010404600D684FF48056AC07C4F256
:1058C0000206F8D53368002203F0F9073760304646
:1058D000726041684FF4805411F00C0FC4F202045E
:1058E000F7D12568264645F48033236037684FF4A6
:1058F0008054B803C4F20204F8D56068214640F42D
:10590000E8126260256845F0807626600F684FF4E3
:105910008053BA01C4F20203F8D54FF4C8444FF4DF
:105920000050C0F21D04C4F2020012215C6001604C
:105930005A681D4642F002065E606F6807F00C026E
:10594000082AFAD13449354B99421BD2DC1C0D1D73
:10595000661B334826F00304261D07680423B34260
:105960000F60C4F380040DD024B14768B2421346DF
:105970002F6007D01D581A1D5D5084580833B3425C
:105980008C50F7D127482849884217D2CE1C071DD2
:10599000F31B23F00302014614180025A142056001
:1059A000C2F380000AD018B1A74239463D6005D045
:1059B0000E1D4D600831A1427560F9D11B4D1C4F81
:1059C000BD421CD2FB1C2E1D9A1B9008471C0124B3
:1059D000296800EA04088847BC4210D0B8F1000FDB
:1059E00005D0336802249847BC42354607D06E681C
:1059F000B0470234AA6890470835BC42F7D1FAF79D
:105A00009FFB00BF000800200000002000040020D1
:105A1000000400200308002000080020B80800202F
:105A2000206C0008B808002068130020400100081E
:105A300040010008AFF30080AFF30080AFF30080B7
:105A400038B50546202383F311880C48FBF7F0FA9C
:105A5000044670B90A488268416842F8045B8A4289
:105A6000826024BF026882600648FFF7D1FAFEF721
:105A700037FF002383F31188204638BD64080020D7
:105A80004808002058080020AFF30080AFF30080E2
:105A900003464269806910B5824298681BD0013084
:105AA000986002F8011B19695A618A420CD21A687F
:105AB00093420ED011680024196010464B601462A6
:105AC000FFF776F8204610BDDA685A611A689342EB
:105AD000F0D1002010BD0028E1D06FF0030010BD10
